:100000000C942A000C9447000C9447000C94470071
:100010000C947A120C9451120C9447000C94CC124C
:100020000C94F5120C94A3120C9428120C94FF114A
:100030000C9447000C9447000C9447000C94470024
:100040000C9447000C9447000C9447000C94470014
:100050000C94470011241FBECFE5D8E0DEBFCDBF12
:1000600012E0A0E6B0E0ECEFF6E202C005900D92DF
:10007000A839B107D9F713E0A8E9B2E001C01D9291
:10008000AE35B107E1F70E94400C0C947C130C9440
:100090000000EF92FF920F931F937B018C0120E0F1
:1000A00030E040E05FE40E94CB0288238CF0C8017E
:1000B000B70120E030E040E05FE40E94C1010E940F
:1000C000FB029B01AC01205030404040504806C02C
:1000D000C801B7010E94FB029B01AC01B901CA0132
:1000E0001F910F91FF90EF900895A0E0B0E0EBE733
:1000F000F0E00C944513DC012B01FA019C91923045
:1001000008F439C1EB018881823008F433C194309E
:1001100069F4843009F02FC111969C91119789815F
:10012000981709F428C1A4E7B0E025C1843009F488
:1001300021C18230A9F4923009F01DC19A01AD01AC
:1001400088E0EA010990AE01E90109929E0181501F
:10015000C1F7E201898111969C918923818308C1AD
:10016000923009F407C112962D903C901397EB0141
:100170008A819B811496AD90BD90CD90DC901797AD
:10018000EC80FD800E811F819101281B390BB90184
:1001900037FF04C066277727621B730B6032710537
:1001A0000CF061C0121613066CF537014801062EDB
:1001B00004C096948794779467940A94D2F721E0C8
:1001C00030E040E050E004C0220F331F441F551FB1
:1001D0006A95D2F721503040404050402E213F21B7
:1001E00040235123211531054105510521F021E01E
:1001F00030E040E050E079018A01E628F72808293C
:1002000019293CC0232BD1F1260E371E350146019A
:10021000062E04C096948794779467940A94D2F734
:1002200021E030E040E050E004C0220F331F441FC3
:10023000551F6A95D2F721503040404050402A2146
:100240003B214C215D21211531054105510521F04E
:1002500021E030E040E050E059016A01A628B728CB
:10026000C828D9280BC0821593052CF01C01AA249C
:10027000BB24650103C0EE24FF24870111969C91E5
:10028000D20111968C91981709F445C0992339F041
:10029000A80197012A193B094C095D0906C0A6016E
:1002A00095012E193F09400B510B57FD08C01182D3
:1002B0003382228224833583468357831DC081E0A5
:1002C00081833382228288279927DC01821B930B4A
:1002D000A40BB50B84839583A683B7830DC0220F2F
:1002E000331F441F551F24833583468357838281E0
:1002F000938101979383828324813581468157813D
:10030000DA01C9010197A109B1098F5F9F4FAF4F72
:10031000BF4328F30BC0918333822282EA0CFB1C7B
:100320000C1D1D1DE482F5820683178383E0808304
:10033000248135814681578157FF1AC0C901AA27F8
:1003400097FDA095BA2F81709070A070B0705695EF
:10035000479537952795822B932BA42BB52B848318
:100360009583A683B7838281938101969383828349
:10037000DF0101C0D201CD01CDB7DEB7E2E10C94BF
:100380006113A0E2B0E0E7ECF1E00C945113698353
:100390007A838B839C832D833E834F835887E9E048
:1003A000EE2EF12CEC0EFD1ECE010196B7010E943F
:1003B000EC048E010F5E1F4FCE010596B8010E941E
:1003C000EC048A8991E089278A8BC701B801AE01C4
:1003D000475E5F4F0E9475000E941704A096E6E0FA
:1003E0000C946D13A0E2B0E0E8EFF1E00C9451132F
:1003F00069837A838B839C832D833E834F835887C5
:10040000F9E0EF2EF12CEC0EFD1ECE010196B701A6
:100410000E94EC048E010F5E1F4FCE010596B801BD
:100420000E94EC04C701B801AE01475E5F4F0E9415
:1004300075000E941704A096E6E00C946D13A8E1E5
:10044000B0E0E5E2F2E00C944D1369837A838B838C
:100450009C832D833E834F835887B9E0EB2EF12C8C
:10046000EC0EFD1ECE010196B7010E94EC048E0138
:100470000F5E1F4FCE010596B8010E94EC0429853E
:10048000223008F47EC03989323010F4B8017CC0C3
:100490008A859A8989278A87243011F0223031F49D
:1004A000231709F06EC064E770E06EC0343039F491
:1004B0001D861E861F86188A1C861B8604C0323045
:1004C00021F484E08987B7015FC02B853C858B8947
:1004D0009C89281B390B3C872B87ED84FE840F8574
:1004E0001889AD88BE88CF88D88CEA14FB040C0527
:1004F0001D0540F4EE0CFF1C001F111F2150304061
:100500003C872B8720E030E040E050E080E090E046
:10051000A0E0B0E460E070E0EA14FB040C051D0507
:1005200040F0282B392B4A2B5B2BEA18FB080C09CF
:100530001D09B695A79597958795EE0CFF1C001F92
:10054000111F6F5F7F4F6F31710531F7DA01C901FC
:100550008F779070A070B07080349105A105B105BF
:1005600061F427FD0AC0E114F1040105110529F029
:10057000205C3F4F4F4F5F4F20782D873E874F873E
:10058000588BBE01675F7F4FCB010E9417046896AE
:10059000EAE00C946913A8E1B0E0E1EDF2E00C941C
:1005A000511369837A838B839C832D833E834F838E
:1005B000588789E0E82EF12CEC0EFD1ECE01019645
:1005C000B7010E94EC048E010F5E1F4FCE0105960D
:1005D000B8010E94EC048985823040F0898982301C
:1005E00028F0C701B8010E94640501C08FEF68962A
:1005F000E6E00C946D13ACE0B0E0E1E0F3E00C94C5
:10060000551369837A838B839C83CE010196BE0147
:100610006B5F7F4F0E94EC048D81823061F18230EC
:1006200050F1843021F48E81882351F12EC02F8126
:10063000388537FD20C06E812F3131051CF06623CF
:10064000F9F023C08EE190E0821B930B29853A8557
:100650004B855C8504C056954795379527958A95B7
:10066000D2F76623B1F050954095309521953F4FD4
:100670004F4F5F4F0EC020E030E040E050E009C037
:100680002FEF3FEF4FEF5FE704C020E030E040E0A6
:1006900050E8B901CA012C96E2E00C947113A8E06D
:1006A000B0E0E5E5F3E00C944D137B018C0161159E
:1006B00071058105910519F482E0898360C083E0AA
:1006C00089838EE1C82ED12CDC82CB82ED82FE8222
:1006D0000F831887C801B7010E94C803FC01319736
:1006E000F7FF3BC0222733272E1B3F0B5701680122
:1006F000022E04C0D694C794B794A7940A94D2F754
:1007000040E050E060E070E081E090E0A0E0B0E028
:1007100004C0880F991FAA1FBB1F2A95D2F7019703
:10072000A109B1098E219F21A023B1230097A10522
:10073000B10521F041E050E060E070E04A295B291A
:100740006C297D294D835E836F8378878EE190E0ED
:100750008E1B9F0B9C838B8312C0309781F00E2ED3
:1007600004C0EE0CFF1C001F111F0A94D2F7ED828B
:10077000FE820F831887CE1ADF0ADC82CB821A82B0
:10078000CE0101960E9417042896EAE00C946913A2
:10079000EF92FF920F931F937B018C0180E0E8168C
:1007A00080E0F80681E0080780E0180788F48FEF02
:1007B000E816F1040105110531F028F088E090E019
:1007C000A0E0B0E017C080E090E0A0E0B0E012C090
:1007D00080E0E81680E0F80680E0080781E018076E
:1007E00028F088E190E0A0E0B0E004C080E190E073
:1007F000A0E0B0E020E230E040E050E0281B390B00
:100800004A0B5B0B04C016950795F794E7948A95FD
:10081000D2F7F701E458FF4F8081281B31094109C5
:100820005109C9011F910F91FF90EF900895DF9238
:10083000EF92FF920F931F93FC01E480F5800681F5
:100840001781D1808081823048F480E090E0A0E17F
:10085000B0E0E82AF92A0A2B1B2BA5C0843009F442
:100860009FC0823021F4EE24FF24870105C0E114EB
:10087000F1040105110519F4E0E0F0E096C0628191
:1008800073819FEF623879070CF05BC022E83FEF7D
:10089000261B370B2A3131052CF020E030E040E0F8
:1008A00050E02AC0B801A701022E04C076956795D2
:1008B000579547950A94D2F781E090E0A0E0B0E028
:1008C00004C0880F991FAA1FBB1F2A95D2F7019752
:1008D000A109B1098E219F21A023B1230097A10571
:1008E000B10521F081E090E0A0E0B0E09A01AB0119
:1008F000282B392B4A2B5B2BDA01C9018F7790709B
:10090000A070B07080349105A105B10539F427FFBE
:1009100009C0205C3F4F4F4F5F4F04C0215C3F4FE9
:100920004F4F5F4FE0E0F0E02030A0E03A07A0E05A
:100930004A07A0E45A0710F0E1E0F0E079018A01EB
:1009400027C06038710564F5FB01E158FF4FD801FD
:10095000C7018F779070A070B07080349105A105A9
:10096000B10539F4E7FE0DC080E490E0A0E0B0E00E
:1009700004C08FE390E0A0E0B0E0E80EF91E0A1F8B
:100980001B1F17FF05C016950795F794E79431963E
:1009900087E016950795F794E7948A95D1F705C0F7
:1009A000EE24FF248701EFEFF0E06E2F67956627B6
:1009B0006795902F9F77D794DD24D7948E2F8695B7
:1009C000492F462B582F5D29B701CA011F910F915E
:1009D000FF90EF90DF900895FC01DB014081518191
:1009E0002281622F6F7770E0221F2227221F9381BE
:1009F000892F880F822B282F30E0991F9927991F64
:100A000011969C93119721153105A9F541155105B2
:100A10006105710511F482E037C082E89FEF1396FB
:100A20009C938E9312979A01AB0167E0220F331FBC
:100A3000441F551F6A95D1F783E08C930DC0220F98
:100A4000331F441F551F12968D919C911397019748
:100A500013969C938E931297203080E0380780E0A5
:100A6000480780E4580758F314962D933D934D930F
:100A70005C93179708952F3F310579F4411551057F
:100A80006105710519F484E08C93089564FF03C037
:100A900081E08C9312C01C9210C02F5730401396E7
:100AA0003C932E93129783E08C9387E0440F551F5D
:100AB000661F771F8A95D1F7706414964D935D93E6
:100AC0006D937C93179708951F93DC01FB019C9114
:100AD000923008F447C08081823008F443C09430DB
:100AE00051F411961C91843099F58181682F70E042
:100AF000611B71093FC0843021F0923031F48230A3
:100B0000B9F18181882389F12DC011961C9111972B
:100B10008230F1F081811817D9F412962D913C9111
:100B20001397828193818217930794F028173907CE
:100B3000BCF014968D919D910D90BC91A02D2481B7
:100B4000358146815781281739074A075B0718F412
:100B5000112341F00AC082179307A407B50740F498
:100B6000112319F061E070E005C06FEF7FEF02C064
:100B700060E070E0CB011F910895ECE7F1E041E007
:100B800051E061E070E055838081813009F43FC01D
:100B9000813038F0823009F470C0833009F0D5C05C
:100BA000A1C082818130A9F42AB3CB01018002C0A7
:100BB000880F991F0A94E2F7982F282B2ABB83816C
:100BC0008130D1F0882309F0C0C08BB39095982371
:100BD00015C0882309F0B9C02AB3CB01018002C037
:100BE000880F991F0A94E2F7982F382F3095232306
:100BF0002ABB8481813021F48BB3982B9BBBA7C087
:100C0000882309F0A2C08BB338233BBBA0C08281EC
:100C10008130A9F427B3CB01018002C0880F991F4E
:100C20000A94E2F7982F282B27BB83818130D1F0DB
:100C3000882309F08AC088B39095982315C088232B
:100C400009F083C027B3CB01018002C0880F991F30
:100C50000A94E2F7982F382F3095232327BB8481FD
:100C6000813021F488B3982B98BB71C0882309F098
:100C70006CC088B3382338BB6AC082818130A9F444
:100C800024B3CB01018002C0880F991F0A94E2F7B8
:100C9000982F282B24BB83818130D1F0882309F041
:100CA00054C085B39095982315C0882309F04DC092
:100CB00024B3CB01018002C0880F991F0A94E2F788
:100CC000982F382F3095232324BB8481813021F441
:100CD00085B3982B95BB3BC08823B9F585B33823E2
:100CE00035BB35C082818130A1F421B3CB010180B5
:100CF00002C0880F991F0A94E2F7982F282B21BB76
:100D000083818130C1F0882301F582B390959823C7
:100D100014C08823D1F421B3CB01018002C0880F15
:100D2000991F0A94E2F7982F382F3095232321BB7F
:100D30008481813021F482B3982B92BB08C0882330
:100D400021F482B3382332BB02C0158240E03696CC
:100D500081E0E43FF80709F016CF842F089584312D
:100D600008F099C090E0FC01EE0FFF1FE80FF91F9B
:100D7000DF01AA0FBB1FA458BE4F15968C91159783
:100D8000813009F088C0EE0FFF1FE258FE4F8081CE
:100D9000813009F080C08C91813029F1813030F0B0
:100DA0008230F1F1833009F074C057C0613069F4CA
:100DB0002BB381E090E011960C9002C0880F991F30
:100DC0000A94E2F7282B2BBB64C02BB381E090E0A0
:100DD00011960C9002C0880F991F0A94E2F7809533
:100DE00082238BBB56C0613069F428B381E090E068
:100DF00011960C9002C0880F991F0A94E2F7282BD5
:100E000028BB47C028B381E090E011960C9002C047
:100E1000880F991F0A94E2F78095822388BB39C016
:100E2000613069F425B381E090E011960C9002C026
:100E3000880F991F0A94E2F7282B25BB2AC025B3F7
:100E400081E090E011960C9002C0880F991F0A94DF
:100E5000E2F78095822385BB1CC0613069F422B320
:100E600081E090E011960C9002C0880F991F0A94BF
:100E7000E2F7282B22BB0DC022B381E090E011964F
:100E80000C9002C0880F991F0A94E2F78095822384
:100E900082BB81E0089580E00895CF93DF93EB015A
:100EA0008431A0F590E0FC01EE0FFF1FE80FF91F61
:100EB000DF01AA0FBB1FA458BE4F15968C91159742
:100EC000813021F5EE0FFF1FE258FE4F808188230D
:100ED000E9F48C918130A1F0813028F0823091F0DA
:100EE000833061F411C089B390E011960C9002C078
:100EF000959587950A94E2F78170888381E007C011
:100F000086B3F2CF83B3F0CF80B3EECF80E0DF9132
:100F1000CF9108951F93182F80919A02813009F084
:100F200058C08091A502813031F1813020F08230AB
:100F300009F04FC046C08DE061E00E94AF068EE030
:100F400060E00E94AF06612F6295617088E00E94A8
:100F5000AF06612F62956695617089E00E94AF06C9
:100F60001295169516951370612F61708AE00E9494
:100F7000AF06169518C08CE060E00E94AF06612FA6
:100F8000617088E00E94AF06612F6695617089E00C
:100F90000E94AF0616951695612F61708AE00E9437
:100FA000AF06169511708BE0612F0E94AF068CE0A2
:100FB00061E00E94AF068091A5028F5F8093A50239
:100FC00008C08CE060E00E94AF061092A50281E0AC
:100FD00001C080E01F910895CF93DF93EC018091D1
:100FE0009902882349F580919802882321F0809105
:100FF000A002813009F580919F02FE01E80FF11DEA
:1010000080810E948A07982F81E0809398028093C4
:10101000A002913091F480919F028F5F80939F0294
:10102000C80FD11D8881882339F41092980210923C
:10103000A0021092A10201C090E0892FDF91CF9110
:101040000895982F80919A028130E1F4809199025D
:101050008823C1F480919802882321F08091A40212
:10106000813081F4892F0E948A07982F81E0809334
:1010700098028093A402913031F410929802109259
:10108000A40201C090E0892F08951F93182F80912A
:10109000A602813099F1813018F0823069F547C09D
:1010A0008DE060E00E94AF068EE060E00E94AF0637
:1010B000612F6295617088E00E94AF06612F629592
:1010C0006695617089E00E94AF0612951695169597
:1010D0001370612F61708AE00E94AF0616958BE055
:1010E000612F0E94AF068CE061E00E94AF06809104
:1010F000A6028F5F8093A60280E020C08CE060E0B3
:101100000E94AF06612F617088E00E94AF06612FD8
:101110006695617089E00E94AF0616951695612F5D
:1011200061708AE00E94AF0616951170D8CF8CE0EE
:1011300060E00E94AF061092A60281E01F91089520
:1011400080919802882311F48091990281E00E9495
:101150004508982F81E080939902913011F4109204
:101160009902892F0895982F80919A02813011F564
:10117000809198028823F1F480919902882321F0CC
:1011800080919B028130B1F49295990F990F907CD8
:10119000960F892F80680E944508982F81E08093E0
:1011A000990280939B02913031F41092990210922F
:1011B0009B0201C090E0892F0895CF93DF93EC014B
:1011C00080919E02882321F0813009F056C026C00C
:1011D00080919A02813009F050C080919802882352
:1011E00009F04BC080919902882329F080919D02DB
:1011F000813009F042C0862F642F0E94B308982FD7
:1012000081E08093990280939D029130B9F510920C
:10121000990210929D0290939E022FC08091990294
:10122000882359F580919802882321F080919D02AE
:10123000813019F580919C02FE01E80FF11D80813B
:101240000E948A07982F81E08093980280939D02E4
:101250009130A1F480919C028F5F80939C02C80F13
:10126000D11D8881882349F41092980210929D0222
:1012700010929E0210929C0201C090E0892FDF9193
:10128000CF91089580919A02882309F062C08091DD
:10129000A302823029F1833030F4882361F0813059
:1012A00009F057C013C0843079F1843018F18530CB
:1012B00009F04FC045C080919902882329F08091A0
:1012C000A202813009F045C082E027C080919902D6
:1012D000882321F08091A2028130D9F588E21DC0D7
:1012E00080919902882321F08091A202813089F5B2
:1012F0008EE013C080919902882321F08091A20290
:10130000813039F586E009C080919902882321F067
:101310008091A2028130E9F481E00E94450891E0C9
:10132000909399029093A202813099F48091A30244
:101330008F5F8093A302109299021092A2020895E7
:101340001092A30281E080939A0282E499E00E94C5
:10135000BF0A0895ECE4F3E08CEB92E026E0918381
:10136000808322831382148215823696849633E01A
:10137000EE35F307A1F70895DF93CF9300D000D0A7
:1013800000D0CDB7DEB729833A834B835C836D836E
:101390007E83482F50E0FA01EE0FFF1FE40FF51F88
:1013A000EE0FFF1FDF01A45BBC4FE25BFC4F159605
:1013B0009C9115978081981781F114968C911497C0
:1013C00090E09C01220F331F280F391F220F331F7B
:1013D000ED91FC91E20FF31FDE01119686E00D9076
:1013E00001928150E1F7FA01EE0FFF1FE40FF51FA4
:1013F000EE0FFF1F9F01245B3C4FD90114968C9187
:1014000090E0E25BFC4F6081019670E00E94321335
:10141000F901848385818F5F858326960FB6F894C2
:10142000DEBF0FBECDBFCF91DF910895DB01682FE6
:1014300070E0FB01EE0FFF1FE60FF71FEE0FFF1F1F
:10144000E45BFC4F8581882369F1838190E09C01F6
:10145000220F331F280F391F220F331F0190F081F5
:10146000E02DE20FF31F86E001900D928150E1F72D
:10147000FB01EE0FFF1FE60FF71FEE0FFF1F9F018F
:10148000245B3C4FD90113968C9190E0E25BFC4FBA
:101490006081019670E00E943213F9018383858197
:1014A0008150858308958091F4019091F501019612
:1014B0009093F5018093F4018091F4019091F501EE
:1014C000885E9D4F31F481E090E09093F501809328
:1014D000F40108951F93782F192F6091A7026630A9
:1014E00061F590E061E0492F50E0FA01EE0FFF1F37
:1014F000E40FF51FEE0FFF1FE85DFC4F8581882389
:1015000011F080E016C0DF01872F912F9C01F901B7
:1015100086E001900D928150E1F7FA01EE0FFF1F76
:10152000E40FF51FEE0FFF1FE85DFC4F658381E0C0
:1015300096E09F5F9630B8F220C0462F50E0FA0147
:10154000EE0FFF1FE40FF51FEE0FFF1FE85DFC4FCE
:101550009C01D90186E00D9001928150E1F7FA01DA
:10156000EE0FFF1FE40FF51FEE0FFF1FE85DFC4FAE
:1015700081E085836F5F6093A7021F910895AC019E
:10158000009711F482E0089520E0822F90E0FC01A2
:10159000EE0FFF1FE80FF91FEE0FFF1FE85DFC4F76
:1015A000808191818417950711F4158226E02F5FC1
:1015B000263058F381E00895CF92DF92FF920F9387
:1015C0001F93DF93CF9300D000D000D0CDB7DEB70C
:1015D000FF246E010894C11CD11C2DC08F2D90E0FA
:1015E000FC01EE0FFF1FE80FF91F8F01000F111F05
:1015F000085D1C4FD80115968C9115978130D1F458
:101600008091F4019091F50113966D917C9114975E
:101610000E941E13892B71F4EE0FFF1FE65DFC4F35
:101620008081F801208131814281538164817581FB
:101630000E94BC09F394F5E0FF1580F620E0822FAC
:1016400090E0FC01EE0FFF1FE80FF91FEE0FFF1FE8
:10165000E45BFC4F8581882341F0822FB6010E9414
:10166000160AE981FA81099523E02F5F233038F3C8
:1016700085B7806885BF889585B78F7785BFFF243C
:10168000ADCF0E94AA0980E061E070E00E94841161
:1016900083E59AE00E94E61180E00E94BB0D81E0A4
:1016A00008958F929F92AF92BF92CF92DF92EF9266
:1016B000FF920F931F93DF93CF930F92CDB7DEB7B7
:1016C0007C018091A802813011F0CC2488C019825D
:1016D000CC2400E0DD24D3945E010894A11CB11C4D
:1016E0000130A9F0013020F0023009F043C022C0DF
:1016F00080E061E00E94AF0682E060E00E94AF06F9
:1017000081E061E00E94AF0683E061E00EC080E00E
:1017100061E00E94AF0682E061E00E94AF0681E0D6
:1017200061E00E94AF0683E060E00E94AF0684E0C3
:1017300061E012C080E061E00E94AF0682E061E0FB
:101740000E94AF0681E061E00E94AF0683E061E0A5
:101750000E94AF0684E060E00E94AF0685E061E091
:101760000E94AF0686E061E00E94AF0687E061E07C
:101770000E94AF068D2C839482E0982E9D0C10E081
:10178000113079F0113018F0123001F514C085E0F5
:10179000B5010E944D0789818823C1F4F701D082E9
:1017A00013C086E0B5010E944D078981882371F43A
:1017B000F701808209C087E0B5010E944D07898149
:1017C000882321F4F7019082CC24C3941F5F133047
:1017D000B9F60F5FF3E0DF0E033009F081CF8C2DF7
:1017E0000F90CF91DF911F910F91FF90EF90DF90BD
:1017F000CF90BF90AF909F908F9008958091A80256
:10180000882311F40E94BD0584E061E00E94AF06C8
:1018100085E061E00E94AF0686E061E00E94AF06CD
:1018200087E061E00E94AF0682E061E00E94AF06BF
:1018300083E061E00E94AF0681E08093A8028EEF12
:101840009BE00E94BF0A81E008958091F8018823FF
:10185000B1F481E08093F8018093F601E091AB024E
:10186000F0E0E057FD4F90818091AC02981729F489
:101870008091A9028F5F8093A9021092AD02089512
:101880006F927F928F929F92AF92BF92CF92DF9290
:10189000EF92FF920F931F93DF93CF93CDB7DEB7F5
:1018A000AA970FB6F894DEBF0FBECDBF0E94410BC2
:1018B00046E0FE013196DF01842F1D928A95E9F7FB
:1018C0008EEF9BE09A83898322E030E03D832C8376
:1018D00077E0672E712C6C0E7D1ED301842F1D9234
:1018E0008A95E9F782E499E098878F833B872A8776
:1018F0006DE0862E912C8C0E9D1ED401842F1D929E
:101900008A95E9F782E79DE09E878D87398B288B42
:1019100053E1A52EB12CAC0EBD1ED501842F1D9216
:101920008A95E9F785E69DE09C8B8B8B88EC90E0AF
:101930009F8B8E8B99E1C92ED12CCC0EDD1ED6014A
:10194000842F1D928A95E9F785E29CE09A8F898F12
:1019500084E190E09D8F8C8F8FE1E82EF12CEC0ECE
:10196000FD1ED701842F1D928A95E9F785E39DE03E
:1019700098A38F8F3BA32AA38E010B5D1F4FD80125
:101980001D924A95E9F789EF9CE09EA38DA384EF11
:1019900091E099A788A7CF010E946A0AC3010E941B
:1019A0006A0AC4010E946A0AC5010E946A0AC60145
:1019B0000E946A0AC7010E946A0AC8010E946A0A54
:1019C0000E94DC0A80E090E0AA960FB6F894DEBF91
:1019D0000FBECDBFCF91DF911F910F91FF90EF9080
:1019E000DF90CF90BF90AF909F908F907F906F903F
:1019F00008958091F6018330B9F58091F701813027
:101A0000B9F484E061E00E94AF0685E061E00E94E5
:101A1000AF0686E061E00E94AF0687E061E00E94C9
:101A2000AF0683E061E00E94AF061092F7010895CF
:101A30008823D1F484E060E00E94AF0685E060E096
:101A40000E94AF0686E060E00E94AF0687E060E09B
:101A50000E94AF0683E060E00E94AF0681E08093C1
:101A6000F70187E08093F60108951F931091F60126
:101A7000123049F58091AA02882341F467E00E9460
:101A8000B308813001F58093AA021DC0813061F452
:101A90008091A902805D0E9421088130A1F41093F9
:101AA000F6011093AA020FC0823069F480E690E03C
:101AB00060E048E00E94DD08813029F41092AA021B
:101AC00083E08093F6011F9108958091F6018823A9
:101AD00041F48CEA92E00E94510B813011F4109293
:101AE000F80108958091AD02882309F043C08091E8
:101AF000AF02882331F40E94A008813011F4809352
:101B0000AF028091AF028130A9F58091AE028823A7
:101B100081F48091AB0221E1829FC00111248750A2
:101B20009E4F60E040E00E94DD08813011F4809318
:101B3000AE028091AE028130E9F483E690E061E08C
:101B400040E00E94DD08982F8130A1F48091AB0223
:101B50008F5F8093AB029093AD021092F6011092CA
:101B6000AE021092AF02873029F41092AB0282E0ED
:101B70008093F6010895833008F0E9C2482F50E0C1
:101B80008BE090E0489FF001499FF00D589FF00DC9
:101B90001124E059FD4F8081882309F0A1C0818183
:101BA000882321F0813099F020E058C083B78F7BE3
:101BB00083BF83B7877F83BF8185882329F08130E6
:101BC00089F489B7816012C089B78E7F16C083B748
:101BD0008F7B83BF83B7886083BF8185882359F05B
:101BE000813011F020E00BC089B7826089BF8FB7C8
:101BF00080688FBF03C089B78D7F89BF21E08BE0EC
:101C000090E0489FF001499FF00D589FF00D11247E
:101C1000E059FD4F84818CBF8281823029F083306E
:101C200049F08130A9F40CC083B7806183BF83B7CA
:101C300080620BC083B78F7E83BF83B780620DC085
:101C400083B7806183BF83B78F7D83BFBB9A06C094
:101C500083B78F7E83BF83B78F7D83BF8BE090E098
:101C6000489FF001499FF00D589FF00D1124E05955
:101C7000FD4F90859230D9F0933030F4992361F084
:101C8000913009F064C20CC09430E9F09430A8F0AF
:101C9000953009F05CC21DC083B7887F83BF2CC21A
:101CA00083B7887F83BF83B7816083BF2DC283B72B
:101CB000887F83BF83B7826011C083B7887F83BF6B
:101CC00083B783600BC083B7887F83BF83B784608B
:101CD00005C083B7887F83BF83B7856083BF34C265
:101CE000813009F045C18181882309F06FC08CEFF4
:101CF0008FBD87EE8EBD8381882349F1813009F045
:101D00004DC0948185818BBD9ABD8281813059F00F
:101D1000813030F0823099F0833009F03FC009C043
:101D20008FB58F7324C08FB58F738FBD8FB58064CF
:101D30000BC08FB58F738FBD8FB5806805C08FB511
:101D40008F738FBD8FB5806C8FBD8D9A19C09481B4
:101D5000858189BD98BD8281813059F0813028F01C
:101D60008230B1F08330D1F40DC08FB58F7C8FBD40
:101D700007C08FB58F7C8FBD8FB580618FBD8C9A6A
:101D800021E00DC08FB58F7C8FBD8FB58062F6CFFF
:101D90008FB58F7C8FBD8FB58063F0CF20E08BE057
:101DA00090E0489FF001499FF00D589FF00D1124DD
:101DB000E059FD4F8185882331F0813009F095C0CD
:101DC00089B784604CC089B78B7F8DC0813011F09A
:101DD00021E08CC08CEF8FBD88E08EBD838188238D
:101DE00009F445C0813009F080C0948185818BBDA4
:101DF0009ABD8281813061F0813030F08230A1F073
:101E0000833061F020E018C08FB58F738FBD13C091
:101E10008FB58F738FBD8FB580640BC08FB58F73F7
:101E20008FBD8FB5806805C08FB58F738FBD8FB59F
:101E3000806C8FBD8D9A21E08BE090E0489FF0018F
:101E4000499FF00D589FF00D1124E059FD4F8185F9
:101E5000882351F0813009F048C089B7806189BF7B
:101E60008FB780688FBF42C089B78F7E3CC0948196
:101E700085818BBD9ABD8281813061F0813030F0E7
:101E80008230A1F0833061F020E018C08FB58F7CE4
:101E90008FBD13C08FB58F7C8FBD8FB580610BC098
:101EA0008FB58F7C8FBD8FB5806205C08FB58F7C5D
:101EB0008FBD8FB580638FBD8C9A21E08BE090E061
:101EC000489FF001499FF00D589FF00D1124E059F3
:101ED000FD4F8185882329F0813039F489B78860E6
:101EE000BECF89B7877F89BF01C020E08BE090E03B
:101EF000489FF001499FF00D589FF00D1124E059C3
:101F0000FD4F90859230D9F0933030F4992361F0F1
:101F1000913009F01CC10CC09430E9F09430A8F065
:101F2000953009F014C11DC08EB5887F8EBDE4C008
:101F30008EB5887F8EBD8EB581608EBDE5C08EB5B5
:101F4000887F8EBD8EB5826011C08EB5887F8EBDB4
:101F50008EB583600BC08EB5887F8EBD8EB58460D4
:101F600005C08EB5887F8EBD8EB585608EBDECC0F8
:101F7000823009F0ECC08181882329F0813009F496
:101F80004AC020E09AC085B58F7B85BD85B5877F27
:101F900085BD8185882359F0813011F020E00BC088
:101FA00089B7806489BF8FB780688FBF03C089B746
:101FB0008F7B89BF21E08BE090E0489FF001499F33
:101FC000F00D589FF00D1124E059FD4F848183BD21
:101FD0008281823029F0833049F08130A9F40CC02D
:101FE00085B5806185BD85B580620BC085B58F7E66
:101FF00085BD85B580620DC085B5806185BD85B51F
:102000008F7D85BD8F9A59C085B58F7E85BD85B57D
:102010008F7D85BD52C085B58F7B85BD85B58860B8
:1020200085BD8185882359F0813011F020E00BC0F7
:1020300089B7806889BF8FB780688FBF03C089B7B1
:102040008F7789BF21E08BE090E0489FF001499FA6
:10205000F00D589FF00D1124E059FD4F8281823020
:1020600029F0833049F08130A9F40CC085B5806136
:1020700085BD85B580620BC085B58F7E85BD85B574
:1020800080620DC085B5806185BD85B58F7D85BDBC
:102090008F9A06C085B58F7E85BD85B58F7D85BD40
:1020A0008BE090E0489FF001499FF00D589FF00DA4
:1020B0001124E059FD4F848183BD8BE090E0489F5F
:1020C000F001499FF00D589FF00D1124E059FD4F8C
:1020D0009085933039F1943028F4913079F0923032
:1020E000A8F407C0953051F1953010F1963079F58C
:1020F00013C085B5887F85BD12862AC085B5887FC7
:1021000085BD85B5816085BD928722C085B5887FF4
:1021100085BD85B5826017C085B5887F85BD85B5CD
:10212000836011C085B5887F85BD85B584600BC08F
:1021300085B5887F85BD85B5866005C085B5887FF6
:1021400085BD85B5876085BD81E0828701C020E0BF
:10215000822F0895982FE0E7F2E031E021E08081BE
:10216000891709F0A4C08285813009F49FC09923A2
:1021700081F56330D9F0643030F4613051F0623071
:1021800009F094C00DC06430B9F0653009F08EC01C
:1021900019C083B7887F83BF83B7816083BF64C062
:1021A00083B7887F83BF83B7826011C083B7887F7E
:1021B00083BF83B783600BC083B7887F83BF83B738
:1021C000846005C083B7887F83BF83B7856083BF82
:1021D00059C0913089F56330D9F0643030F4613002
:1021E00051F0623009F062C00DC06430B9F0653062
:1021F00009F05CC019C08EB5887F8EBD8EB5816038
:102200008EBD32C08EB5887F8EBD8EB5826011C006
:102210008EB5887F8EBD8EB583600BC08EB5887FEE
:102220008EBD8EB5846005C08EB5887F8EBD8EB59F
:1022300085608EBD92873BC09230C9F5633021F135
:10224000643028F4613051F0623081F50FC06530A0
:1022500039F16530F8F0663049F50EC085B5887FF4
:1022600085BD85B5816085BD628721C085B5887FC4
:1022700085BD85B5826005C085B5887F85BD85B57E
:10228000836085BD228713C085B5887F85BD85B5F0
:102290008460F7CF85B5887F85BD85B58660F1CF31
:1022A00085B5887F85BD85B58760EBCF30E03B96EF
:1022B00082E0E139F80709F052CF832F0895982F73
:1022C000E0E7F2E021E080818917B9F4828581306E
:1022D00011F020E012C0992321F483B7887F83BFD7
:1022E0000BC0913021F48EB5887F8EBD05C0923031
:1022F00021F485B5887F85BD12863B9682E0E13961
:10230000F80709F7822F08959F92AF92BF92CF925C
:10231000DF92EF92FF920F931F93CF93DF93D82E0C
:102320006F31710568F0882309F43FC082E0D81648
:10233000E1F18FE16134780718F081E0D816A9F156
:1023400020E09BE0A92EB12CCC24C3947B0100E0BB
:1023500010E085E0982E822F90E08A9DE0018B9D11
:10236000D00D9A9DD00D1124C059DD4F88818D1557
:10237000C9F48A858823A9F4C9821A821B82C801FC
:10238000B7010E944F032FE632E143E05EE30E9473
:102390001F020E9449007D836C831F821E829886E3
:1023A000C98623E02F5F2330B0F2DF91CF911F91D8
:1023B0000F91FF90EF90DF90CF90BF90AF909F90E4
:1023C00008959093B1028093B00208959093B30260
:1023D0008093B20208959093B5028093B402089559
:1023E0009093B7028093B60208959093B9028093B8
:1023F000B80208959093BB028093BA0208951F9289
:102400000F920FB60F9211242F933F934F935F9328
:102410006F937F938F939F93AF93BF93EF93FF93AC
:10242000E091B002F091B102309709F00995FF9167
:10243000EF91BF91AF919F918F917F916F915F913C
:102440004F913F912F910F900FBE0F901F901895B5
:102450001F920F920FB60F9211242F933F934F9319
:102460005F936F937F938F939F93AF93BF93EF93FC
:10247000FF93E091B202F091B302309709F0099511
:10248000FF91EF91BF91AF919F918F917F916F914C
:102490005F914F913F912F910F900FBE0F901F9022
:1024A00018951F920F920FB60F9211242F933F93FE
:1024B0004F935F936F937F938F939F93AF93BF934C
:1024C000EF93FF93E091B402F091B502309709F0D9
:1024D0000995FF91EF91BF91AF919F918F917F915E
:1024E0006F915F914F913F912F910F900FBE0F9081
:1024F0001F9018951F920F920FB60F9211242F93D1
:102500003F934F935F936F937F938F939F93AF937B
:10251000BF93EF93FF93E091B602F091B70230972B
:1025200009F00995FF91EF91BF91AF919F918F9124
:102530007F916F915F914F913F912F910F900FBEBF
:102540000F901F9018951F920F920FB60F921124A3
:102550002F933F934F935F936F937F938F939F93AB
:10256000AF93BF93EF93FF93E091B802F091B9025C
:10257000309709F00995FF91EF91BF91AF919F912D
:102580008F917F916F915F914F913F912F910F901C
:102590000FBE0F901F9018951F920F920FB60F92BB
:1025A00011242F933F934F935F936F937F938F9358
:1025B0009F93AF93BF93EF93FF93E091BA02F09193
:1025C000BB02309709F00995FF91EF91BF91AF9150
:1025D0009F918F917F916F915F914F913F912F913B
:1025E0000F900FBE0F901F9018951F920F920FB66D
:1025F0000F9211242F933F934F935F936F937F9389
:102600008F939F93AF93BF93EF93FF93E091BA02A1
:10261000F091BB02309709F00995FF91EF91BF91BE
:10262000AF919F918F917F916F915F914F913F916A
:102630002F910F900FBE0F901F901895AA1BBB1BD8
:1026400051E107C0AA1FBB1FA617B70710F0A61BB2
:10265000B70B881F991F5A95A9F780959095BC01D3
:10266000CD01089597FB092E07260AD077FD04D0E7
:10267000E5DF06D000201AF4709561957F4F08952C
:10268000F6F7909581959F4F08952F923F924F9224
:102690005F926F927F928F929F92AF92BF92CF92F2
:1026A000DF92EF92FF920F931F93CF93DF93CDB7FB
:1026B000DEB7CA1BDB0B0FB6F894DEBF0FBECDBF73
:1026C00009942A88398848885F846E847D848C8444
:1026D0009B84AA84B984C884DF80EE80FD800C814D
:1026E0001B81AA81B981CE0FD11D0FB6F894DEBF30
:0C26F0000FBECDBFED010895F894FFCFA0
:1026FC002F3500312E59657320322E4E6F20332E1C
:10270C00536B70000000000000000000000102028A
:10271C00030303030404040404040404050505056D
:10272C000505050505050505050505050606060649
:10273C00060606060606060606060606060606062D
:10274C000606060606060606060606060707070719
:10275C0007070707070707070707070707070707FD
:10276C0007070707070707070707070707070707ED
:10277C0007070707070707070707070707070707DD
:10278C0007070707070707070707070708080808C9
:10279C0008080808080808080808080808080808AD
:1027AC00080808080808080808080808080808089D
:1027BC00080808080808080808080808080808088D
:1027CC00080808080808080808080808080808087D
:1027DC00080808080808080808080808080808086D
:1027EC00080808080808080808080808080808085D
:1027FC00080808080808080808080808080808084D
:10280C000808080808080808080808080200010059
:10281C00FF0102010100FF0102020100010102039C
:10282C000100010102040100010102050000010187
:10283C000206000001010207000001010004010072
:10284C00FF0100050100FF0100060100FF01000768
:10285C000100FF0100030100FF0100010100FF0165
:10286C0000020100FF0101030100FF010102010050
:10287C00FF0101020100FF0101020100FF01010241
:10288C000100FF01010001010157454C434F4D452B
:10289C00205E5F5E000000000000446F20796F75C1
:1028AC00206C6F7665206D65203F00446F20796F3A
:1028BC0075206E656564206D65203F00446F20793E
:1028CC006F752077616E74206D653F0000446F203A
:1028DC00796F753F00000000000000000000446F9D
:1028EC0020796F753F0000000000000000000053CD
:1028FC00636F72653A0000000000000000000000E9
:10290C0000010000000000000001000101000000B7
:10291C0000000000010002010000000000000001A6
:08292C0000010101010100009E
:00000001FF
